:020000020000FC
:0200000008C630
:1002000021E139EE46E84A95F1F73A95E1F72A956A
:10021000D1F7089522E031EB49ED4A95F1F73A958F
:10022000E1F72A95D1F7000008952CE238E43A95D9
:10023000F1F72A95E1F70000089525E033E53A95B6
:10024000F1F72A95E1F700000895E4DFE3DFE2DF4C
:10025000E1DFE0DF08950EE10093000400E0009389
:10026000040401E200932008089500E000930004D4
:1002700000E00093040401E0009320080895109327
:1002800024080091230807FFFCCF0091240808955B
:10029000009324080091230807FFFCCF1091240845
:1002A0000895109324080091230807FFFCCF0091C4
:1002B000240808950091230807FFFCCF109124081B
:1002C0000895C9DF009100040066009300040091C6
:1002D0000404006200930404B0DF009104040F7D65
:1002E00000930404AADF0091040400620093040454
:1002F000A4DFEAE4F3E015911F3F11F002D0FBCF39
:100300000895009104040F7E0093040400910404F6
:100310000F7B00930404B3DF009104040061009399
:1003200004040895009104040F7E009304040091D6
:100330000404006400930404A2DF0091040400613B
:10034000009304040895EEDF0895AED580A83FD34E
:1003500000408D142000A1C8DA1281CFD9F1DB4012
:10036000A4A62EAFFFFF00000000000000007E8169
:1003700095B1B195817E7EFFEBCFCFEBFF7E0E1F57
:100380003F7E3F1F0E00081C3E7F3E1C08001818D1
:100390005B6F6F5B1818181C5E6F5E1C1800000006
:1003A000183C3C180000FFFFE7C3C3E7FFFF003C19
:1003B000664242663C00FFC399BDBD99C3FF70F819
:1003C0008888FD7F070F004E5FF1F15F4E004060AF
:1003D00060603F020C002030309FC5CA7C00082AB4
:1003E0001C771C2A08007F3E3E1C1C0808000808D9
:1003F0001C1C3E3E7F000014227F7F221400005F01
:100400005F00005F5F000E1F117F7F017F7F4098BC
:10041000A6A56519020000707070707070000094DD
:10042000A2FFFFA294000004027F7F0204000010DC
:10043000207F7F2010000808082A3E1C0800081CA6
:100440003E2A080808003C3C202020202000081CF0
:100450002A08082A1C0830383C3E3C383000060E7A
:100460001E3E1E0E060000000000000000000000FE
:10047000065F5F0600000001070001070000147F0F
:100480007F147F7F1400242E2A7F2A3A10004C6AA2
:1004900036186C563200307A4D4D7F3250000000D5
:1004A000050300000000001C3E6341000000004105
:1004B000633E1C000000082A3E1C1C3E2A08080857
:1004C0003E3E080800000000A06000000000080890
:1004D00008080808000000004040000000004060DC
:1004E00030180C0603003E7F794D477F3E000044E4
:1004F000467F7F40400062735159496F6600226316
:100500004949497F3600181C16537F7F50002767E2
:100510004545457D39003E7F4949497B320003030B
:1005200071790D070300367F4949497F3600266FF0
:100530004949497F3E0000002222000000000000DF
:10054000A2620000000000081C3663410000002485
:10055000242424242400004163361C0800000203E4
:1005600051590F0600003E414955555D1E007E7FE2
:100570000909097F7E00417F7F49497F36003E7F20
:10058000414141632200417F7F41417F3E00417FE5
:100590007F495D416300417F7F491D0103003E7F2C
:1005A0004141517776007F7F0808087F7F00000077
:1005B000417F7F410000307040417F3F0100417F1B
:1005C0007F081C776300417F7F41406070007F7E21
:1005D0000C180C7E7F007F7F060C187F7F003E7F0B
:1005E0004141417F3E00417F7F49090F06003E7F28
:1005F000417161FFBE00417F7F09097F7600266F50
:100600004949497B32000007417F7F4107003F7F16
:100610004040407F3F000F1F3060301F0F007F3F82
:10062000180C183F7F0041633E1C3E6341000007E9
:100630004F78784F0700476371594D677300007F0B
:100640007F41410000000103060C183060000041AA
:10065000417F7F000000080C0603060C0800808024
:1006600080808080808000000305000000002074EE
:1006700054543C784000017F7F4848783000387CF3
:100680004444446C2800307848493F7F4000387C1F
:100690005454545C180000487E7F4903020018BC83
:1006A000A4A4F87C0400417F7F08047C780000004B
:1006B000447D7D40000040C08088FA7A0000417F80
:1006C0007F10386C44000000417F7F4000007C7C3C
:1006D00008780C7C7800047C7804047C7800387CF2
:1006E0004444447C380084FCF8A4243C1800183CA2
:1006F00024A4FCFC8000447C784C040C0C00085CB6
:1007000054545474200004043E7F442400003C7C74
:1007100040403C7C40000C1C3060301C0C003C7C99
:100720006038607C3C00446C3810386C44009CBCE1
:10073000A0A0FC7C00004C64745C4C6400000000D1
:10074000083E7741410000000077770000004141FA
:10075000773E0800000002030103020301007078E5
:100760004C464C7870001EBFA1E1613312003D7D04
:1007700040403D7D4000387C5456555D1900227143
:1007800055553D794200217554543D7940002175FD
:1007900055563C784000207457573C78400018BCB0
:1007A000A4E4642400003A7D5555555D1A00397D56
:1007B0005454545D1900397D5556545C180000019D
:1007C000457C7C4101000201457D7D410200010123
:1007D000457E7C400000797D1414147D7900787C7E
:1007E0001717177C7800447C7C56554545002074CB
:1007F000547C545458007E7F09097F4949003A7D52
:100800004545457D3A00397D4444447D3900397D74
:100810004546447C38003E7D41413D7D42003D7D62
:1008200041423C7C40009DBDA0A0FD7D00003D7F7D
:100830004242427F3D003D7D4040407D3D001C3EA8
:10084000227F63361400687E3F69434220000029FE
:100850002B7E7E2B29007F7F052577FAA00040C0E4
:1008600088FE7F090302207454563D794100000040
:10087000447E7D410100387C4446457D39003C7C06
:1008800040423D7D4100067D7906067D79007E7DF2
:100890000D1A327D7D0000202D2D272E20000026F0
:1008A0002F292F26000030784D4540703000383811
:1008B00008080808000008080808383800002F1F3A
:1008C000084C6A7858002F1F28347A7820000000DE
:1008D000307D7D300000081C362A1C36220022366E
:1008E0001C2A361C0800AA005500AA005500AA556B
:1008F000AA55AA55AA55DDFFAA77DDAAFF77000001
:1009000000FFFF000000101010FFFF000000141493
:1009100014FFFF0000001010FFFF00FFFF00101089
:10092000F0F010F0F000141414FCFC00000014149B
:10093000F7F700FFFF000000FFFF00FFFF001414A7
:10094000F4F404FCFC0014141717101F1F001010FF
:100950001F1F101F1F001414141F1F000000101071
:1009600010F0F00000000000001F1F101010101009
:10097000101F1F101010101010F0F01010100000B9
:1009800000FFFF1010101010101010101010101099
:1009900010FFFF101010000000FFFF1414140000DF
:1009A000FFFF00FFFF1000001F1F101717140000AB
:1009B000FCFC04F4F414141417171017171414146F
:1009C000F4F404F4F4140000FFFF00F7F714141417
:1009D0001414141414141414F7F700F7F71414145F
:1009E00014171714141410101F1F101F1F101414A5
:1009F00014F4F41414141010F0F010F0F0100000BF
:100A00001F1F101F1F100000001F1F1414140000D0
:100A100000FCFC1414140000F0F010F0F0101010A2
:100A2000FFFF10FFFF10141414FFFF141414101014
:100A3000101F1F000000000000F0F0101010FFFF5A
:100A4000FFFFFFFFFFFFF0F0F0F0F0F0F0F0FFFF2E
:100A5000FFFF0000000000000000FFFFFFFF0F0F7E
:100A60000F0F0F0F0F0F387C4464386C40007EFF6F
:100A700001454F7A3000417F7F4101010300087C2E
:100A80003C047C3C06004163775D49416300387C4F
:100A9000444C34040400FC7C40407C3C0000080CC6
:100AA000047C3C040400183CA5FFA53C18003E7FD4
:100AB0004949497F3E004E5F7101715F4E003078B9
:100AC0004B4D7D390200182424181824241858741A
:100AD000343C2C2E1A00387C5454544400007C7E44
:100AE0000202027E7C002A2A2A2A2A2A2A0000449C
:100AF000445F5F4444000040515B4E4400000044AA
:100B00004E5B51400000000000FEFF01070660E060
:100B100080FF7F0000000008082A2A080800243609
:100B200012362436120000020705070200000000FA
:100B30000018180000000000001010000000103025
:100B400070407F7F0101010F0E010F0E00000D0D9F
:100B50000B0B0000000000003C3C3C3C000000008F
:100B60000000000000000F931F934F93A0E0BEE72A
:100B7000022F132F40E1413019F0110F4695FBCFA2
:100B8000100FA10F08F4B3954F911F910F91089585
:100B90001F932F933F93112722273327A0E0BEE70F
:100BA000383040F4203118F41D932395FBCF2227D1
:100BB0003395F6CF3F912F911F9108952F933F9337
:100BC000A0E0BEE722273327383048F4203120F454
:100BD0001D9108D02395FACF22273395F5CF3F9169
:100BE0002F9108950F921F925F936F93E6E6F3E0C3
:100BF000512F68E0569FE00DF11D55271591A3DB9D
:100C00005395583009F0FACF6F915F911F900F9074
:100C1000089557DBBDDFD2DF00E00093200411E030
:100C20001093000610E010930106212F11E110939C
:100C3000020619E01093060690E028E030E093DF0A
:100C400042E04C9331E08FDF48E14C9320D0C6D096
:100C5000B5DFFCCF11E01093080610910B061130A0
:100C600009F0FBCF10911006512F10910D06612F46
:100C700001D00895551F661F551F661F262F822F0E
:100C8000089508957AC000C09630E1F3089520E0F9
:100C9000392F8217C1F367DF4FE04C9323E0392FE0
:100CA000821789F360DF4FE04C9325E0392F8217DC
:100CB00051F359DF4FE04C9326E0392F821719F397
:100CC00052DF4FE04C9329E0392F821701F14BDFBF
:100CD0004FE04C932BE0392F8217C9F044DF4FE0EF
:100CE0004C932DE0392F821791F03DDF4FE04C936C
:100CF0002FE0392F821759F036DF4FE04C939F30A9
:100D000039F0939587DA86DA85DA089536C0BCCF54
:100D100055DF23E034E027DF44E44C9324E034E063
:100D200022DF45E44C9325E034E01DDF44E54C939D
:100D300026E034E018DF45E44C9327E034E013DF8D
:100D400042E54C9328E034E00EDF4DE44C9329E07B
:100D500034E009DF49E44C932AE034E004DF4EE458
:100D60004C932BE034E0FFDE45E44C932CE034E080
:100D7000FADE44E44C9344DA43DA20DF28E030E042
:100D8000F2DE41E04C9326E033E0EDDE47E44C93A5
:100D900027E033E0E8DE41E44C9328E033E0E3DE93
:100DA0004DE44C9329E033E0DEDE45E44C9326E04D
:100DB00035E0D9DE4FE44C9327E035E0D4DE46E55C
:100DC0004C9328E035E0CFDE45E44C9329E035E054
:100DD000CADE42E54C9314DA13DA12DA282F36E031
:100DE000C2DE40E04C9336DFBEDE43E04C93089514
:00000001FF
